{
  "contractName": "RPSCore",
  "abi": [
    {
      "constant": false,
      "inputs": [],
      "name": "withdrawTipForDeveloper",
      "outputs": [],
      "payable": false,
      "stateMutability": "nonpayable",
      "type": "function"
    },
    {
      "constant": true,
      "inputs": [],
      "name": "ceoAddress",
      "outputs": [
        {
          "name": "",
          "type": "address"
        }
      ],
      "payable": false,
      "stateMutability": "view",
      "type": "function"
    },
    {
      "constant": false,
      "inputs": [
        {
          "name": "_newCEO",
          "type": "address"
        }
      ],
      "name": "setCEO",
      "outputs": [],
      "payable": false,
      "stateMutability": "nonpayable",
      "type": "function"
    },
    {
      "constant": false,
      "inputs": [],
      "name": "unpause",
      "outputs": [],
      "payable": false,
      "stateMutability": "nonpayable",
      "type": "function"
    },
    {
      "constant": true,
      "inputs": [],
      "name": "paused",
      "outputs": [
        {
          "name": "",
          "type": "bool"
        }
      ],
      "payable": false,
      "stateMutability": "view",
      "type": "function"
    },
    {
      "constant": true,
      "inputs": [
        {
          "name": "",
          "type": "uint256"
        }
      ],
      "name": "arrIndexAvailableGames",
      "outputs": [
        {
          "name": "",
          "type": "uint256"
        }
      ],
      "payable": false,
      "stateMutability": "view",
      "type": "function"
    },
    {
      "constant": false,
      "inputs": [],
      "name": "pause",
      "outputs": [],
      "payable": false,
      "stateMutability": "nonpayable",
      "type": "function"
    },
    {
      "constant": true,
      "inputs": [],
      "name": "totalTipForDeveloper",
      "outputs": [
        {
          "name": "",
          "type": "uint256"
        }
      ],
      "payable": false,
      "stateMutability": "view",
      "type": "function"
    },
    {
      "constant": true,
      "inputs": [
        {
          "name": "",
          "type": "uint256"
        }
      ],
      "name": "arrAllGames",
      "outputs": [
        {
          "name": "id",
          "type": "uint256"
        },
        {
          "name": "state",
          "type": "uint256"
        },
        {
          "name": "timeExpire",
          "type": "uint256"
        },
        {
          "name": "valueBet",
          "type": "uint256"
        },
        {
          "name": "gestureGuest",
          "type": "uint256"
        },
        {
          "name": "hashGestureHost",
          "type": "bytes32"
        },
        {
          "name": "addressHost",
          "type": "address"
        },
        {
          "name": "addressGuest",
          "type": "address"
        }
      ],
      "payable": false,
      "stateMutability": "view",
      "type": "function"
    },
    {
      "constant": true,
      "inputs": [],
      "name": "idCounter",
      "outputs": [
        {
          "name": "",
          "type": "uint256"
        }
      ],
      "payable": false,
      "stateMutability": "view",
      "type": "function"
    },
    {
      "constant": true,
      "inputs": [
        {
          "name": "",
          "type": "uint256"
        }
      ],
      "name": "idToIndexAvailableGames",
      "outputs": [
        {
          "name": "",
          "type": "uint256"
        }
      ],
      "payable": false,
      "stateMutability": "view",
      "type": "function"
    },
    {
      "inputs": [],
      "payable": false,
      "stateMutability": "nonpayable",
      "type": "constructor"
    },
    {
      "payable": true,
      "stateMutability": "payable",
      "type": "fallback"
    },
    {
      "anonymous": false,
      "inputs": [
        {
          "indexed": true,
          "name": "_addressSender",
          "type": "address"
        },
        {
          "indexed": false,
          "name": "_id",
          "type": "uint256"
        },
        {
          "indexed": false,
          "name": "_valueReturn",
          "type": "uint256"
        }
      ],
      "name": "LogCloseGameSuccessed",
      "type": "event"
    },
    {
      "anonymous": false,
      "inputs": [
        {
          "indexed": true,
          "name": "_addressSender",
          "type": "address"
        },
        {
          "indexed": false,
          "name": "_id",
          "type": "uint256"
        }
      ],
      "name": "LogCreateGameSuccessed",
      "type": "event"
    },
    {
      "anonymous": false,
      "inputs": [
        {
          "indexed": true,
          "name": "_addressSender",
          "type": "address"
        },
        {
          "indexed": false,
          "name": "_id",
          "type": "uint256"
        },
        {
          "indexed": false,
          "name": "_addressHost",
          "type": "address"
        }
      ],
      "name": "LogJoinGameSuccessed",
      "type": "event"
    },
    {
      "anonymous": false,
      "inputs": [
        {
          "indexed": true,
          "name": "_addressSender",
          "type": "address"
        },
        {
          "indexed": false,
          "name": "_id",
          "type": "uint256"
        },
        {
          "indexed": false,
          "name": "_result",
          "type": "uint256"
        },
        {
          "indexed": false,
          "name": "_addressPlayerWin",
          "type": "address"
        },
        {
          "indexed": false,
          "name": "_addressPlayerLose",
          "type": "address"
        },
        {
          "indexed": false,
          "name": "_valuePlayerWin",
          "type": "uint256"
        },
        {
          "indexed": false,
          "name": "_valuePlayerLose",
          "type": "uint256"
        },
        {
          "indexed": false,
          "name": "_gesturePlayerWin",
          "type": "uint256"
        },
        {
          "indexed": false,
          "name": "_gesturePlayerLose",
          "type": "uint256"
        }
      ],
      "name": "LogRevealGameSuccessed",
      "type": "event"
    },
    {
      "anonymous": false,
      "inputs": [
        {
          "indexed": false,
          "name": "_id",
          "type": "uint256"
        },
        {
          "indexed": false,
          "name": "_result",
          "type": "uint256"
        },
        {
          "indexed": true,
          "name": "_addressPlayerWin",
          "type": "address"
        },
        {
          "indexed": true,
          "name": "_addressPlayerLose",
          "type": "address"
        },
        {
          "indexed": false,
          "name": "_valuePlayerWin",
          "type": "uint256"
        },
        {
          "indexed": false,
          "name": "_valuePlayerLose",
          "type": "uint256"
        }
      ],
      "name": "LogHistory",
      "type": "event"
    },
    {
      "anonymous": false,
      "inputs": [
        {
          "indexed": false,
          "name": "newContract",
          "type": "address"
        }
      ],
      "name": "ContractUpgrade",
      "type": "event"
    },
    {
      "constant": false,
      "inputs": [
        {
          "name": "_hashGestureHost",
          "type": "bytes32"
        }
      ],
      "name": "createGame",
      "outputs": [],
      "payable": true,
      "stateMutability": "payable",
      "type": "function"
    },
    {
      "constant": false,
      "inputs": [
        {
          "name": "_id",
          "type": "uint256"
        },
        {
          "name": "_gestureGuest",
          "type": "uint256"
        }
      ],
      "name": "joinGame",
      "outputs": [],
      "payable": true,
      "stateMutability": "payable",
      "type": "function"
    },
    {
      "constant": false,
      "inputs": [
        {
          "name": "_id",
          "type": "uint256"
        },
        {
          "name": "_gestureHost",
          "type": "uint256"
        },
        {
          "name": "_secretKey",
          "type": "bytes32"
        }
      ],
      "name": "revealGameByHost",
      "outputs": [],
      "payable": true,
      "stateMutability": "payable",
      "type": "function"
    },
    {
      "constant": false,
      "inputs": [
        {
          "name": "_id",
          "type": "uint256"
        }
      ],
      "name": "revealGameByGuest",
      "outputs": [],
      "payable": true,
      "stateMutability": "payable",
      "type": "function"
    },
    {
      "constant": false,
      "inputs": [
        {
          "name": "_id",
          "type": "uint256"
        }
      ],
      "name": "hostCloseGame",
      "outputs": [],
      "payable": true,
      "stateMutability": "payable",
      "type": "function"
    },
    {
      "constant": true,
      "inputs": [],
      "name": "getArrIndexAvailableGames",
      "outputs": [
        {
          "name": "",
          "type": "uint256[]"
        }
      ],
      "payable": false,
      "stateMutability": "view",
      "type": "function"
    },
    {
      "constant": true,
      "inputs": [],
      "name": "getLengthArrIndexAvailableGames",
      "outputs": [
        {
          "name": "",
          "type": "uint256"
        }
      ],
      "payable": false,
      "stateMutability": "view",
      "type": "function"
    },
    {
      "constant": true,
      "inputs": [
        {
          "name": "_gesture",
          "type": "uint256"
        },
        {
          "name": "_secretKey",
          "type": "bytes32"
        }
      ],
      "name": "getHashGesture",
      "outputs": [
        {
          "name": "",
          "type": "bytes32"
        }
      ],
      "payable": false,
      "stateMutability": "pure",
      "type": "function"
    }
  ],
  "bytecode": "0x608060405260006001556000600260006101000a81548160ff02191690831515021790555034801561003057600080fd5b50336000806101000a81548173ffffffffffffffffffffffffffffffffffffffff021916908373ffffffffffffffffffffffffffffffffffffffff1602179055506001600760006103e8815260200190815260200160002060006103e88152602001908152602001600020819055506003600760006103e8815260200190815260200160002060006107d08152602001908152602001600020819055506002600760006103e881526020019081526020016000206000610bb88152602001908152602001600020819055506001600760006107d0815260200190815260200160002060006107d08152602001908152602001600020819055506003600760006107d081526020019081526020016000206000610bb88152602001908152602001600020819055506002600760006107d0815260200190815260200160002060006103e8815260200190815260200160002081905550600160076000610bb881526020019081526020016000206000610bb8815260200190815260200160002081905550600360076000610bb8815260200190815260200160002060006103e8815260200190815260200160002081905550600260076000610bb8815260200190815260200160002060006107d08152602001908152602001600020819055506000600381905550612964806102266000396000f3fe608060405260043610610107576000357c0100000000000000000000000000000000000000000000000000000000900463ffffffff168063034d3b0d146101145780630a0f81681461012b5780631b094a401461018257806327d7874c146101ad5780633f4ba83a146101fe578063457391e514610215578063593b927d146102435780635c975abb1461029c578063666dcd51146102cb5780636f8456c314610337578063808754ab146103865780638456cb59146103b457806396c2d4c9146103cb578063a77db944146103f6578063b60b9fcb14610438578063bcd8713914610470578063d845213314610548578063eb08ab2814610576578063fb898b06146105a1575b3460015401600181905550005b34801561012057600080fd5b506101296105f0565b005b34801561013757600080fd5b50610140610781565b604051808273ffffffffffffffffffffffffffffffffffffffff1673ffffffffffffffffffffffffffffffffffffffff16815260200191505060405180910390f35b34801561018e57600080fd5b506101976107a6565b6040518082815260200191505060405180910390f35b3480156101b957600080fd5b506101fc600480360360208110156101d057600080fd5b81019080803573ffffffffffffffffffffffffffffffffffffffff1690602001909291905050506107b3565b005b34801561020a57600080fd5b5061021361095f565b005b6102416004803603602081101561022b57600080fd5b8101908080359060200190929190505050610ac4565b005b34801561024f57600080fd5b506102866004803603604081101561026657600080fd5b810190808035906020019092919080359060200190929190505050610d09565b6040518082815260200191505060405180910390f35b3480156102a857600080fd5b506102b1610d42565b604051808215151515815260200191505060405180910390f35b3480156102d757600080fd5b506102e0610d55565b6040518080602001828103825283818151815260200191508051906020019060200280838360005b83811015610323578082015181840152602081019050610308565b505050509050019250505060405180910390f35b34801561034357600080fd5b506103706004803603602081101561035a57600080fd5b8101908080359060200190929190505050610dad565b6040518082815260200191505060405180910390f35b6103b26004803603602081101561039c57600080fd5b8101908080359060200190929190505050610dd0565b005b3480156103c057600080fd5b506103c961127c565b005b3480156103d757600080fd5b506103e06113e2565b6040518082815260200191505060405180910390f35b6104366004803603606081101561040c57600080fd5b810190808035906020019092919080359060200190929190803590602001909291905050506113e8565b005b61046e6004803603604081101561044e57600080fd5b810190808035906020019092919080359060200190929190505050611e5a565b005b34801561047c57600080fd5b506104a96004803603602081101561049357600080fd5b8101908080359060200190929190505050612361565b604051808981526020018881526020018781526020018681526020018581526020018481526020018373ffffffffffffffffffffffffffffffffffffffff1673ffffffffffffffffffffffffffffffffffffffff1681526020018273ffffffffffffffffffffffffffffffffffffffff1673ffffffffffffffffffffffffffffffffffffffff1681526020019850505050505050505060405180910390f35b6105746004803603602081101561055e57600080fd5b81019080803590602001909291905050506123f8565b005b34801561058257600080fd5b5061058b61266b565b6040518082815260200191505060405180910390f35b3480156105ad57600080fd5b506105da600480360360208110156105c457600080fd5b8101908080359060200190929190505050612671565b6040518082815260200191505060405180910390f35b6000809054906101000a900473ffffffffffffffffffffffffffffffffffffffff1673ffffffffffffffffffffffffffffffffffffffff163373ffffffffffffffffffffffffffffffffffffffff161415156106b4576040517f08c379a00000000000000000000000000000000000000000000000000000000081526004018080602001828103825260118152602001807f596f75277265206e6f7420612043454f2100000000000000000000000000000081525060200191505060405180910390fd5b600060015411151561072e576040517f08c379a000000000000000000000000000000000000000000000000000000000815260040180806020018281038252601a8152602001807f4e656564206d6f72652074697020746f2077697468647261772100000000000081525060200191505060405180910390fd5b3373ffffffffffffffffffffffffffffffffffffffff166108fc6001549081150290604051600060405180830381858888f19350505050158015610776573d6000803e3d6000fd5b506000600181905550565b6000809054906101000a900473ffffffffffffffffffffffffffffffffffffffff1681565b6000600580549050905090565b6000809054906101000a900473ffffffffffffffffffffffffffffffffffffffff1673ffffffffffffffffffffffffffffffffffffffff163373ffffffffffffffffffffffffffffffffffffffff16141515610877576040517f08c379a00000000000000000000000000000000000000000000000000000000081526004018080602001828103825260118152602001807f596f75277265206e6f7420612043454f2100000000000000000000000000000081525060200191505060405180910390fd5b600073ffffffffffffffffffffffffffffffffffffffff168173ffffffffffffffffffffffffffffffffffffffff161415151561091c576040517f08c379a00000000000000000000000000000000000000000000000000000000081526004018080602001828103825260198152602001807f4164647265737320746f207365742043454f2077726f6e67210000000000000081525060200191505060405180910390fd5b806000806101000a81548173ffffffffffffffffffffffffffffffffffffffff021916908373ffffffffffffffffffffffffffffffffffffffff16021790555050565b6000809054906101000a900473ffffffffffffffffffffffffffffffffffffffff1673ffffffffffffffffffffffffffffffffffffffff163373ffffffffffffffffffffffffffffffffffffffff16141515610a23576040517f08c379a00000000000000000000000000000000000000000000000000000000081526004018080602001828103825260118152602001807f596f75277265206e6f7420612043454f2100000000000000000000000000000081525060200191505060405180910390fd5b600260009054906101000a900460ff161515610aa7576040517f08c379a000000000000000000000000000000000000000000000000000000000815260040180806020018281038252600b8152602001807f4e6f74207061757365642100000000000000000000000000000000000000000081525060200191505060405180910390fd5b6000600260006101000a81548160ff021916908315150217905550565b600360008154809291906001019190505550610ade612872565b6101006040519081016040528060035481526020016001815260200160008152602001348152602001600081526020018381526020013373ffffffffffffffffffffffffffffffffffffffff16815260200173eeeeeeeeeeeeeeeeeeeeeeeeeeeeeeeeeeeeeeee73ffffffffffffffffffffffffffffffffffffffff16815250905060048190806001815401808255809150509060018203906000526020600020906008020160009091929091909150600082015181600001556020820151816001015560408201518160020155606082015181600301556080820151816004015560a0820151816005015560c08201518160060160006101000a81548173ffffffffffffffffffffffffffffffffffffffff021916908373ffffffffffffffffffffffffffffffffffffffff16021790555060e08201518160070160006101000a81548173ffffffffffffffffffffffffffffffffffffffff021916908373ffffffffffffffffffffffffffffffffffffffff160217905550505050600560016004805490500390806001815401808255809150509060018203906000526020600020016000909192909190915055506001600580549050036006600083600001518152602001908152602001600020819055503373ffffffffffffffffffffffffffffffffffffffff167fb558217376394c6a7f2e14a25b1adfea91dc8b3b46eb89eac7d30e7b0b82a98682600001516040518082815260200191505060405180910390a25050565b60008282604051602001808381526020018281526020019250505060405160208183030381529060405280519060200120905092915050565b600260009054906101000a900460ff1681565b60606005805480602002602001604051908101604052809291908181526020018280548015610da357602002820191906000526020600020905b815481526020019060010190808311610d8f575b5050505050905090565b600581815481101515610dbc57fe5b906000526020600020016000915090505481565b80600081118015610df557506000600660008381526020019081526020016000205410155b1515610e69576040517f08c379a00000000000000000000000000000000000000000000000000000000081526004018080602001828103825260138152602001807f47616d65204944206e6f7420766572696679210000000000000000000000000081525060200191505060405180910390fd5b6000600460056006600086815260200190815260200160002054815481101515610e8f57fe5b9060005260206000200154815481101515610ea657fe5b9060005260206000209060080201905060028160010154141515610f58576040517f08c379a000000000000000000000000000000000000000000000000000000000815260040180806020018281038252603c8152602001807f525053436f72653a3a72657665616c47616d65427947756573743a2047616d6581526020017f206e6f7420696e2073746174652077616974696e672072657665616c0000000081525060400191505060405180910390fd5b806002015442111515610ff9576040517f08c379a00000000000000000000000000000000000000000000000000000000081526004018080602001828103825260398152602001807f525053436f72653a3a72657665616c47616d65427947756573743a2054696d6581526020017f2072657665616c206f6620686f7374206e6f7420656e6465640000000000000081525060400191505060405180910390fd5b3373ffffffffffffffffffffffffffffffffffffffff168160070160009054906101000a900473ffffffffffffffffffffffffffffffffffffffff1673ffffffffffffffffffffffffffffffffffffffff161415156110e6576040517f08c379a00000000000000000000000000000000000000000000000000000000081526004018080602001828103825260368152602001807f525053436f72653a3a72657665616c47616d65427947756573743a20596f752781526020017f7265206e6f7420677565737420746869732067616d650000000000000000000081525060400191505060405180910390fd5b60006110f58260030154612689565b9050611100816126a2565b6111378260070160009054906101000a900473ffffffffffffffffffffffffffffffffffffffff16826002856003015402036126b5565b61114084612700565b3373ffffffffffffffffffffffffffffffffffffffff167fa4b766c0aa8f395406e6a7d0d869e81c98c7b111962f04cacd21c37ce01cb83b8560038560070160009054906101000a900473ffffffffffffffffffffffffffffffffffffffff168660060160009054906101000a900473ffffffffffffffffffffffffffffffffffffffff1686886003015403886003015489600401546000604051808981526020018881526020018773ffffffffffffffffffffffffffffffffffffffff1673ffffffffffffffffffffffffffffffffffffffff1681526020018673ffffffffffffffffffffffffffffffffffffffff1673ffffffffffffffffffffffffffffffffffffffff1681526020018581526020018481526020018381526020018281526020019850505050505050505060405180910390a250505050565b6000809054906101000a900473ffffffffffffffffffffffffffffffffffffffff1673ffffffffffffffffffffffffffffffffffffffff163373ffffffffffffffffffffffffffffffffffffffff16141515611340576040517f08c379a00000000000000000000000000000000000000000000000000000000081526004018080602001828103825260118152602001807f596f75277265206e6f7420612043454f2100000000000000000000000000000081525060200191505060405180910390fd5b600260009054906101000a900460ff161515156113c5576040517f08c379a00000000000000000000000000000000000000000000000000000000081526004018080602001828103825260078152602001807f506175736564210000000000000000000000000000000000000000000000000081525060200191505060405180910390fd5b6001600260006101000a81548160ff021916908315150217905550565b60015481565b8260008111801561140d57506000600660008381526020019081526020016000205410155b1515611481576040517f08c379a00000000000000000000000000000000000000000000000000000000081526004018080602001828103825260138152602001807f47616d65204944206e6f7420766572696679210000000000000000000000000081525060200191505060405180910390fd5b60006004600560066000888152602001908152602001600020548154811015156114a757fe5b90600052602060002001548154811015156114be57fe5b9060005260206000209060080201905060006114da8585610d09565b905060028260010154141515611558576040517f08c379a00000000000000000000000000000000000000000000000000000000081526004018080602001828103825260208152602001807f47616d65206e6f7420696e2073746174652077616974696e672072657665616c81525060200191505060405180910390fd5b816002015442111515156115d4576040517f08c379a00000000000000000000000000000000000000000000000000000000081526004018080602001828103825260168152602001807f486f73742074696d652072657665616c20656e6465640000000000000000000081525060200191505060405180910390fd5b3373ffffffffffffffffffffffffffffffffffffffff168260060160009054906101000a900473ffffffffffffffffffffffffffffffffffffffff1673ffffffffffffffffffffffffffffffffffffffff1614151561169b576040517f08c379a00000000000000000000000000000000000000000000000000000000081526004018080602001828103825260198152602001807f596f75277265206e6f7420686f737420746869732067616d650000000000000081525060200191505060405180910390fd5b60006001905060008090508284600501541415156116bc5760049150600190505b600015158115151415611e5057836004015487141561193c576001915061170b8460060160009054906101000a900473ffffffffffffffffffffffffffffffffffffffff1685600301546126b5565b61173d8460070160009054906101000a900473ffffffffffffffffffffffffffffffffffffffff1685600301546126b5565b61174688612700565b3373ffffffffffffffffffffffffffffffffffffffff167fa4b766c0aa8f395406e6a7d0d869e81c98c7b111962f04cacd21c37ce01cb83b89848760060160009054906101000a900473ffffffffffffffffffffffffffffffffffffffff168860070160009054906101000a900473ffffffffffffffffffffffffffffffffffffffff166000808e8c60040154604051808981526020018881526020018773ffffffffffffffffffffffffffffffffffffffff1673ffffffffffffffffffffffffffffffffffffffff1681526020018673ffffffffffffffffffffffffffffffffffffffff1673ffffffffffffffffffffffffffffffffffffffff1681526020018581526020018481526020018381526020018281526020019850505050505050505060405180910390a28360070160009054906101000a900473ffffffffffffffffffffffffffffffffffffffff1673ffffffffffffffffffffffffffffffffffffffff168460060160009054906101000a900473ffffffffffffffffffffffffffffffffffffffff1673ffffffffffffffffffffffffffffffffffffffff167f1a109f77dc928a9f858dc79b0a46c82ef281c1aacaaf5aa60206372190b2f1688a856000806040518085815260200184815260200183815260200182815260200194505050505060405180910390a3611e4f565b600760008881526020019081526020016000206000856004015481526020019081526020016000205491506002821415611bd457600061197f8560030154612689565b905061198a816126a2565b6119c18560060160009054906101000a900473ffffffffffffffffffffffffffffffffffffffff16826002886003015402036126b5565b6119ca89612700565b3373ffffffffffffffffffffffffffffffffffffffff167fa4b766c0aa8f395406e6a7d0d869e81c98c7b111962f04cacd21c37ce01cb83b8a60028860060160009054906101000a900473ffffffffffffffffffffffffffffffffffffffff168960070160009054906101000a900473ffffffffffffffffffffffffffffffffffffffff16868b60030154038b600301548f8d60040154604051808981526020018881526020018773ffffffffffffffffffffffffffffffffffffffff1673ffffffffffffffffffffffffffffffffffffffff1681526020018673ffffffffffffffffffffffffffffffffffffffff1673ffffffffffffffffffffffffffffffffffffffff1681526020018581526020018481526020018381526020018281526020019850505050505050505060405180910390a28460070160009054906101000a900473ffffffffffffffffffffffffffffffffffffffff1673ffffffffffffffffffffffffffffffffffffffff168560060160009054906101000a900473ffffffffffffffffffffffffffffffffffffffff1673ffffffffffffffffffffffffffffffffffffffff167f1a109f77dc928a9f858dc79b0a46c82ef281c1aacaaf5aa60206372190b2f1688b86858a60030154038a600301546040518085815260200184815260200183815260200182815260200194505050505060405180910390a350611e4e565b6003821480611be35750600482145b15611e4d5760008790506000611bfc8660030154612689565b9050611c07816126a2565b611c3e8660070160009054906101000a900473ffffffffffffffffffffffffffffffffffffffff16826002896003015402036126b5565b611c478a612700565b3373ffffffffffffffffffffffffffffffffffffffff167fa4b766c0aa8f395406e6a7d0d869e81c98c7b111962f04cacd21c37ce01cb83b8b868960070160009054906101000a900473ffffffffffffffffffffffffffffffffffffffff168a60060160009054906101000a900473ffffffffffffffffffffffffffffffffffffffff16868c60030154038c600301548d600401548a604051808981526020018881526020018773ffffffffffffffffffffffffffffffffffffffff1673ffffffffffffffffffffffffffffffffffffffff1681526020018673ffffffffffffffffffffffffffffffffffffffff1673ffffffffffffffffffffffffffffffffffffffff1681526020018581526020018481526020018381526020018281526020019850505050505050505060405180910390a28560060160009054906101000a900473ffffffffffffffffffffffffffffffffffffffff1673ffffffffffffffffffffffffffffffffffffffff168660070160009054906101000a900473ffffffffffffffffffffffffffffffffffffffff1673ffffffffffffffffffffffffffffffffffffffff167f1a109f77dc928a9f858dc79b0a46c82ef281c1aacaaf5aa60206372190b2f1688c87858b60030154038b600301546040518085815260200184815260200183815260200182815260200194505050505060405180910390a350505b5b5b5b5050505050505050565b816001600460056006600085815260200190815260200160002054815481101515611e8157fe5b9060005260206000200154815481101515611e9857fe5b906000526020600020906008020160010154141515611f1f576040517f08c379a00000000000000000000000000000000000000000000000000000000081526004018080602001828103825260138152602001807f47616d65206e6f7420617661696c61626c65210000000000000000000000000081525060200191505060405180910390fd5b82600081118015611f4457506000600660008381526020019081526020016000205410155b1515611fb8576040517f08c379a00000000000000000000000000000000000000000000000000000000081526004018080602001828103825260138152602001807f47616d65204944206e6f7420766572696679210000000000000000000000000081525060200191505060405180910390fd5b826103e8811480611fca57506107d081145b80611fd65750610bb881145b151561204a576040517f08c379a00000000000000000000000000000000000000000000000000000000081526004018080602001828103825260108152602001807f496e76616c69642067657374757265210000000000000000000000000000000081525060200191505060405180910390fd5b600060046005600660008981526020019081526020016000205481548110151561207057fe5b906000526020600020015481548110151561208757fe5b906000526020600020906008020190508060060160009054906101000a900473ffffffffffffffffffffffffffffffffffffffff1673ffffffffffffffffffffffffffffffffffffffff163373ffffffffffffffffffffffffffffffffffffffff1614151515612185576040517f08c379a00000000000000000000000000000000000000000000000000000000081526004018080602001828103825260328152602001807f525053436f72653a3a6a6f696e47616d653a2043616e2774206a6f696e20676181526020017f6d65206372657465616420627920686f7374000000000000000000000000000081525060400191505060405180910390fd5b80600301543414151561224c576040517f08c379a000000000000000000000000000000000000000000000000000000000815260040180806020018281038252604b8152602001807f525053436f72653a3a6a6f696e47616d653a2056616c75652062657420746f2081526020017f626174746c65206e6f7420657874726163746c7920776974682076616c75652081526020017f626574206f6620686f737400000000000000000000000000000000000000000081525060600191505060405180910390fd5b338160070160006101000a81548173ffffffffffffffffffffffffffffffffffffffff021916908373ffffffffffffffffffffffffffffffffffffffff1602179055508481600401819055506002816001018190555061a8c0420181600201819055503373ffffffffffffffffffffffffffffffffffffffff167fcf31bb5ac9b411a01e64a5b5b8316694e923c5d4db9d314503f19f5e523092ec82600001548360060160009054906101000a900473ffffffffffffffffffffffffffffffffffffffff16604051808381526020018273ffffffffffffffffffffffffffffffffffffffff1673ffffffffffffffffffffffffffffffffffffffff1681526020019250505060405180910390a2505050505050565b60048181548110151561237057fe5b90600052602060002090600802016000915090508060000154908060010154908060020154908060030154908060040154908060050154908060060160009054906101000a900473ffffffffffffffffffffffffffffffffffffffff16908060070160009054906101000a900473ffffffffffffffffffffffffffffffffffffffff16905088565b80600160046005600660008581526020019081526020016000205481548110151561241f57fe5b906000526020600020015481548110151561243657fe5b9060005260206000209060080201600101541415156124bd576040517f08c379a00000000000000000000000000000000000000000000000000000000081526004018080602001828103825260138152602001807f47616d65206e6f7420617661696c61626c65210000000000000000000000000081525060200191505060405180910390fd5b60006004600560066000868152602001908152602001600020548154811015156124e357fe5b90600052602060002001548154811015156124fa57fe5b906000526020600020906008020190508060060160009054906101000a900473ffffffffffffffffffffffffffffffffffffffff1673ffffffffffffffffffffffffffffffffffffffff163373ffffffffffffffffffffffffffffffffffffffff161415156125d1576040517f08c379a000000000000000000000000000000000000000000000000000000000815260040180806020018281038252601b8152602001807f56657269667920686f7374206f662067616d65206661696c656421000000000081525060200191505060405180910390fd5b6126038160060160009054906101000a900473ffffffffffffffffffffffffffffffffffffffff1682600301546126b5565b61260c83612700565b3373ffffffffffffffffffffffffffffffffffffffff167f06384bea9d7b27be61d6238732a5554cd8383d13e3c36afcee04fc9683f90b5c848360030154604051808381526020018281526020019250505060405180910390a2505050565b60035481565b60066020528060005260406000206000915090505481565b600060646005830281151561269a57fe5b049050919050565b8060016000828254019250508190555050565b8173ffffffffffffffffffffffffffffffffffffffff166108fc829081150290604051600060405180830381858888f193505050501580156126fb573d6000803e3d6000fd5b505050565b600060046005600660008581526020019081526020016000205481548110151561272657fe5b906000526020600020015481548110151561273d57fe5b906000526020600020906008020190506003816001018190555061276082612764565b5050565b600060066000838152602001908152602001600020549050600160058054905011801561279957506001600580549050038114155b1561281c57600060056001600580549050038154811015156127b757fe5b90600052602060002001549050806005838154811015156127d457fe5b906000526020600020018190555081600660006004848154811015156127f657fe5b906000526020600020906008020160000154815260200190815260200160002081905550505b600560016005805490500381548110151561283357fe5b90600052602060002001600090556006600083815260200190815260200160002060009055600580548091906001900361286d91906128e7565b505050565b61010060405190810160405280600081526020016000815260200160008152602001600081526020016000815260200160008019168152602001600073ffffffffffffffffffffffffffffffffffffffff168152602001600073ffffffffffffffffffffffffffffffffffffffff1681525090565b81548183558181111561290e5781836000526020600020918201910161290d9190612913565b5b505050565b61293591905b80821115612931576000816000905550600101612919565b5090565b9056fea165627a7a72305820b274449e07e58cac714a7c8efd5f628bb547600f9b15f370f34ed6e25205fa3f0029",
  "source": "pragma solidity >=0.4.21 <0.6.0;\n\nimport \"./AccessControl.sol\";\n\ncontract RPSCore is AccessControl {\n    uint constant ROCK = 1000;\n    uint constant PAPER = 2000;\n    uint constant SCISSOR = 3000;\n\n    uint constant GAME_RESULT_DRAW = 1;\n    uint constant GAME_RESULT_HOST_WIN = 2;\n    uint constant GAME_RESULT_GUEST_WIN = 3;\n    uint constant GAME_RESULT_GUEST_WIN_BY_HOST_CHEAT = 4;\n\n    uint constant GAME_STATE_AVAILABLE_TO_JOIN = 1;\n    uint constant GAME_STATE_WAITING_HOST_REVEAL = 2;\n    uint constant GAME_STATE_CLOSED = 3;\n\n    uint constant DEVELOPER_TIP_PERCENT = 5;\n\n    uint constant TIME_GAME_EXPIRE = 12 hours;\n\n    address payable constant DUMMY_ADDRESS = 0xEeeeeEeeeEeEeeEeEeEeeEEEeeeeEeeeeeeeEEeE;\n\n    struct Game {\n        uint id;\n        uint state;\n        uint timeExpire;\n        uint valueBet;\n        uint gestureGuest;\n        bytes32 hashGestureHost;\n        address payable addressHost;\n        address payable addressGuest;\n    }\n\n    event LogCloseGameSuccessed(address indexed _addressSender, uint _id, uint _valueReturn);\n    event LogCreateGameSuccessed(address indexed _addressSender, uint _id);\n    event LogJoinGameSuccessed(address indexed _addressSender, uint _id, address _addressHost);\n    event LogRevealGameSuccessed(address indexed _addressSender,\n                                uint _id,\n                                uint _result,\n                                address _addressPlayerWin,\n                                address _addressPlayerLose,\n                                uint _valuePlayerWin,\n                                uint _valuePlayerLose,\n                                uint _gesturePlayerWin,\n                                uint _gesturePlayerLose);\n    event LogHistory(uint _id,\n                        uint _result,\n                        address indexed _addressPlayerWin,\n                        address indexed _addressPlayerLose,\n                        uint _valuePlayerWin,\n                        uint _valuePlayerLose\n                        );\n \n    uint public idCounter;\n\n    Game[] public arrAllGames;\n    uint[] public arrIndexAvailableGames;\n    mapping(uint => uint) public idToIndexAvailableGames;\n    mapping(uint => mapping(uint => uint)) mappingGameResult;\n\n    constructor() public {\n        ceoAddress = msg.sender;\n\n        //[Host Gesture][Guest Gesture]\n        mappingGameResult[ROCK][ROCK] = GAME_RESULT_DRAW;\n        mappingGameResult[ROCK][PAPER] = GAME_RESULT_GUEST_WIN;\n        mappingGameResult[ROCK][SCISSOR] = GAME_RESULT_HOST_WIN;\n        mappingGameResult[PAPER][PAPER] = GAME_RESULT_DRAW;\n        mappingGameResult[PAPER][SCISSOR] = GAME_RESULT_GUEST_WIN;\n        mappingGameResult[PAPER][ROCK] = GAME_RESULT_HOST_WIN;\n        mappingGameResult[SCISSOR][SCISSOR] = GAME_RESULT_DRAW;\n        mappingGameResult[SCISSOR][ROCK] = GAME_RESULT_GUEST_WIN;\n        mappingGameResult[SCISSOR][PAPER] = GAME_RESULT_HOST_WIN;\n\n        idCounter = 0;\n    }\n\n    function createGame(bytes32 _hashGestureHost)\n        external\n        payable\n    {\n        idCounter++;\n\n        Game memory game = Game({\n            id: idCounter,\n            state: GAME_STATE_AVAILABLE_TO_JOIN,\n            timeExpire: 0,\n            valueBet: msg.value,\n            addressHost: msg.sender,\n            hashGestureHost: _hashGestureHost,\n            addressGuest: DUMMY_ADDRESS,\n            gestureGuest: 0\n        });\n\n        arrAllGames.push(game);\n        arrIndexAvailableGames.push(arrAllGames.length - 1);\n        idToIndexAvailableGames[game.id] = arrIndexAvailableGames.length - 1;\n\n        emit LogCreateGameSuccessed(msg.sender, game.id);\n    }\n\n    function joinGame(uint _id, uint _gestureGuest)\n        external\n        payable\n        verifiedGameAvailableToJoin(_id)\n        verifiedGameId(_id)\n        validGesture(_gestureGuest)\n    {\n        Game storage game = arrAllGames[arrIndexAvailableGames[idToIndexAvailableGames[_id]]];\n\n        require(msg.sender != game.addressHost, \"RPSCore::joinGame: Can't join game cretead by host\");\n        require(msg.value == game.valueBet, \"RPSCore::joinGame: Value bet to battle not extractly with value bet of host\");\n       \n        game.addressGuest = msg.sender;\n        game.gestureGuest = _gestureGuest;\n        game.state = GAME_STATE_WAITING_HOST_REVEAL;\n        game.timeExpire = now + TIME_GAME_EXPIRE;\n\n        emit LogJoinGameSuccessed(msg.sender, game.id, game.addressHost);\n    }\n\n    function revealGameByHost(uint _id, uint _gestureHost, bytes32 _secretKey)\n        external\n        payable\n        verifiedGameId(_id) \n    {\n        Game storage game = arrAllGames[arrIndexAvailableGames[idToIndexAvailableGames[_id]]];\n        bytes32 hashGestureHost = getHashGesture(_gestureHost, _secretKey);\n\n        require(game.state == GAME_STATE_WAITING_HOST_REVEAL, \"Game not in state waiting reveal\");\n        require(now <= game.timeExpire, \"Host time reveal ended\");\n        require(game.addressHost == msg.sender, \"You're not host this game\");\n\n        uint result = GAME_RESULT_DRAW;\n        bool isHostCheat = false;\n\n        if(game.hashGestureHost != hashGestureHost) {\n            result = GAME_RESULT_GUEST_WIN_BY_HOST_CHEAT;\n            isHostCheat = true;\n        }\n\n        if(isHostCheat == false) {\n            //Result: [Draw] => Return money to host and guest players (No fee)\n            if(_gestureHost == game.gestureGuest) {\n                result = GAME_RESULT_DRAW;\n                sendPayment(game.addressHost, game.valueBet);\n                sendPayment(game.addressGuest, game.valueBet);\n                closeGame(_id);\n                emit LogRevealGameSuccessed(msg.sender,\n                                            _id,\n                                            result,\n                                            game.addressHost,\n                                            game.addressGuest,\n                                            0,\n                                            0,\n                                            _gestureHost, \n                                            game.gestureGuest);\n\n                emit LogHistory(_id,\n                                result,\n                                game.addressHost,\n                                game.addressGuest,\n                                0,\n                                0);\n            }\n            else\n            {\n                result = mappingGameResult[_gestureHost][game.gestureGuest];\n\n                if(result == GAME_RESULT_HOST_WIN) {\n                    //Result: [Win] => Return money to winner (Winner will pay 1% fee)\n                    uint tipValue = getTipValue(game.valueBet);\n\n                    addTipForDeveloper(tipValue);\n\n                    sendPayment(game.addressHost, game.valueBet * 2 - tipValue);\n                    closeGame(_id);    \n                    emit LogRevealGameSuccessed(msg.sender,\n                                                _id,\n                                                GAME_RESULT_HOST_WIN,\n                                                game.addressHost,\n                                                game.addressGuest,\n                                                game.valueBet - tipValue,\n                                                game.valueBet,\n                                                _gestureHost, \n                                                game.gestureGuest);  \n\n                    emit LogHistory(_id,\n                                    result,\n                                    game.addressHost,\n                                    game.addressGuest,\n                                    game.valueBet - tipValue,\n                                    game.valueBet);      \n                }\n                else\n                    if(result == GAME_RESULT_GUEST_WIN || result == GAME_RESULT_GUEST_WIN_BY_HOST_CHEAT) {\n                        //Result: [Win] => Return money to winner (Winner will pay 1% fee)\n                        uint cachedGestureHost = _gestureHost;\n                        uint tipValue = getTipValue(game.valueBet);\n\n                        addTipForDeveloper(tipValue);\n\n                        sendPayment(game.addressGuest, game.valueBet * 2 - tipValue);\n                        closeGame(_id);\n                        emit LogRevealGameSuccessed(msg.sender,\n                                                    _id,\n                                                    result,\n                                                    game.addressGuest,\n                                                    game.addressHost,\n                                                    game.valueBet - tipValue,\n                                                    game.valueBet,\n                                                    game.gestureGuest, \n                                                    cachedGestureHost);\n                        \n                        emit LogHistory(_id,\n                                        result,\n                                        game.addressGuest,\n                                        game.addressHost,\n                                        game.valueBet - tipValue,\n                                        game.valueBet);    \n                    }\n            }\n        }\n    }\n\n    function revealGameByGuest(uint _id)\n        external\n        payable\n        verifiedGameId(_id)\n    {\n        Game storage game = arrAllGames[arrIndexAvailableGames[idToIndexAvailableGames[_id]]];\n\n        require(game.state == GAME_STATE_WAITING_HOST_REVEAL, \"RPSCore::revealGameByGuest: Game not in state waiting reveal\");\n        require(now > game.timeExpire, \"RPSCore::revealGameByGuest: Time reveal of host not ended\");\n        require(game.addressGuest == msg.sender, \"RPSCore::revealGameByGuest: You're not guest this game\");\n\n        uint tipValue = getTipValue(game.valueBet);\n\n        addTipForDeveloper(tipValue);\n        sendPayment(game.addressGuest, game.valueBet * 2 - tipValue);\n        closeGame(_id);\n\n        emit LogRevealGameSuccessed(msg.sender,\n                                    _id,\n                                    GAME_RESULT_GUEST_WIN,\n                                    game.addressGuest,\n                                    game.addressHost,\n                                    game.valueBet - tipValue,\n                                    game.valueBet,\n                                    game.gestureGuest, \n                                    0);\n    }\n\n    function hostCloseGame(uint _id)\n        external\n        payable\n        verifiedGameAvailableToJoin(_id)\n    {\n        Game storage game = arrAllGames[arrIndexAvailableGames[idToIndexAvailableGames[_id]]];\n\n        require(msg.sender == game.addressHost, \"Verify host of game failed!\");\n\n        sendPayment(game.addressHost, game.valueBet);\n        closeGame(_id);\n        emit LogCloseGameSuccessed(msg.sender, _id, game.valueBet);\n    }\n\n    function closeGame(uint _id) private {\n        Game storage game = arrAllGames[arrIndexAvailableGames[idToIndexAvailableGames[_id]]];\n\n        game.state = GAME_STATE_CLOSED;\n        removeIndexOfGameFromArrayIndexAvailableGames(_id);\n    }\n\n    function removeIndexOfGameFromArrayIndexAvailableGames(uint _id) private {\n        uint indexRemove = idToIndexAvailableGames[_id];\n        if(arrIndexAvailableGames.length > 1 && (indexRemove != arrIndexAvailableGames.length - 1)) {\n            uint indexWillReplace = arrIndexAvailableGames[arrIndexAvailableGames.length - 1];\n            arrIndexAvailableGames[indexRemove] = indexWillReplace;\n            idToIndexAvailableGames[arrAllGames[indexWillReplace].id] = indexRemove;\n        }\n\n        delete arrIndexAvailableGames[arrIndexAvailableGames.length - 1];\n        delete idToIndexAvailableGames[_id];\n        arrIndexAvailableGames.length--;\n    }\n\n    function getArrIndexAvailableGames()\n        public\n        view \n        returns (uint[] memory) \n    {\n        return arrIndexAvailableGames;\n    }\n\n    function getLengthArrIndexAvailableGames()\n        public\n        view\n        returns (uint)\n    {\n        return arrIndexAvailableGames.length;\n    }\n\n    function getTipValue(uint _valueWin) private pure returns(uint) {\n        return _valueWin * DEVELOPER_TIP_PERCENT / 100;\n    }\n\n    function sendPayment(address payable _receiver, uint _amount) private {\n        _receiver.transfer(_amount);\n    }\n\n    function getHashGesture(uint _gesture, bytes32 _secretKey) public pure returns (bytes32) {\n        return keccak256(abi.encodePacked(_gesture, _secretKey));\n    }\n\n    modifier validGesture(uint _gesture) {\n        require (_gesture == ROCK || _gesture == PAPER || _gesture == SCISSOR, \"Invalid gesture!\");\n        _;\n    }\n\n    modifier verifiedGameAvailableToJoin(uint _id) {\n        require(arrAllGames[arrIndexAvailableGames[idToIndexAvailableGames[_id]]].state == GAME_STATE_AVAILABLE_TO_JOIN, \"Game not available!\");\n        _;\n    }\n\n    modifier verifiedGameId(uint _id) {\n        require(_id > 0 && idToIndexAvailableGames[_id] >= 0, \"Game ID not verify!\");\n        _;\n    }\n}",
  "sourcePath": "/Users/frogdev/Documents/_DApps/tomorps-smartcontract/contracts/RPSCore.sol",
  "compiler": {
    "name": "solc",
    "version": "0.5.0+commit.1d4f565a.Emscripten.clang"
  },
  "schemaVersion": "3.0.3",
  "updatedAt": "2019-04-29T12:05:12.894Z",
  "devdoc": {
    "methods": {
      "pause()": {
        "details": "Called by any \"C-level\" role to pause the contract. Used only when  a bug or exploit is detected and we need to limit damage."
      },
      "setCEO(address)": {
        "details": "Assigns a new address to act as the CEO. Only available to the current CEO.",
        "params": {
          "_newCEO": "The address of the new CEO"
        }
      },
      "unpause()": {
        "details": "Unpauses the smart contract. Can only be called by the CEO, since  one reason we may pause the contract is when CFO or COO accounts are  compromised."
      },
      "withdrawTipForDeveloper()": {
        "details": "Developer can withdraw tip."
      }
    }
  },
  "userdoc": {
    "methods": {
      "unpause()": {
        "notice": "This is public rather than external so it can be called by  derived contracts."
      }
    }
  }
}